:060000000A128A11122809
:10000800FE00030EF1000408F2000A08F300831250
:1000180003137F08F4000A128A116E280A128A1143
:10002800E128831603138501831203130514851130
:10003800FF30831603138700880183120313880196
:10004800870185018515E830B4000330B5000A1230
:100058008A11A9200A128A113830831203138800E2
:100068000030B9000030BA000A128A11C6200A12FC
:100078008A110C308312031388000030B900003055
:10008800BA000A128A11C6200A128A11263083166B
:100098000313990098011812181783120313980173
:1000A80098178316031398168B170B178C14831243
:1000B80003138C100C1341309F00853083160313F3
:1000C8009F007F30831203139200FF3083160313BF
:1000D800920008008C1C712872289E280130F906AD
:1000E8008C101F1577280C1F7A287B2877287C28E6
:1000F8001E08F0007008F600831603131E08F000AF
:100108007008F500831203130C13791C8C288D28B2
:10011800952883160313181476088312031399007D
:100128009E28831603131810750883120313990069
:100138009E289E287408FF0073088A0072088400AD
:10014800710E8300FE0E7E0E090083120313B701A1
:10015800B801B628013083120313B7070318B80A89
:100168000030B8073808803AB6003508803A3602B9
:10017800031DC02834083702031CC328C428AE282E
:10018800C5280800831203133918CB28CF288312F7
:1001980003138516D22883120313851205128511BD
:1001A8001E30B4000030B5000A128A11A9200A12C4
:1001B8008A118312031385150800F901F501F60168
:1001C800F701F80183133430FD000030FE00F830E9
:1001D800FF00203084000A128A1110210A128A11A5
:1001E80083010A128A111F293134303430343034F3
:1001F80030343034303400340034003400340034C7
:100208000034003400340034003400340034003446
:100218007E088A007F0882000A128A110C210A12BD
:100228008A118000840A04087D0603190034FF0A35
:100238000319FE0A10290A128A1115200A128A11B6
:0A024800252925290A128A1112281F
:02400E0029FF88
:00000001FF
