:060000000A128A11122809
:10000800FE00030EF7000408F8000A08F90083123E
:1000180003137F08FA000A128A1115280A128A1196
:10002800052A8C1E182819284E281A08F500750864
:10003800FC001A0888007C1822282628831203133B
:100048009F152928831203139F117C08F50001309E
:100058000310F50CFF3E031D2C287518342838288A
:10006800831203131F163B28831203131F127C08E5
:10007800F50002300310F50CFF3E031D3E287518ED
:1000880046284A28831203139F164D288312031308
:100098009F1270298C1C512852288B280230FB068D
:1000A8008C101F1557280C1F5A285B2857285C28C6
:1000B8001E08F5007508BF007C08F5000430031021
:1000C800F50DFF3E031D63280310750DF600760835
:1000D800BF04831603131E08F50075088312031363
:1000E800BE000C13FB1C79287A2882288316031378
:1000F8001814831203133F089900702983160313F9
:100108001810831203133E089900702970290B1CDC
:100118008E288F2870293D080606F5007508BD0051
:100128003D0888000F308316031386000A30F0005C
:100138000030F1000A128A113B220A128A11831236
:10014800031306080F39F5007508BC003C08880041
:100158003D083C04F5007508FD007D081E3A031DA6
:10016800B628B728B928FC010C297D082E3A031DAA
:10017800BE28BF28C328FC010314FC0D0C297D08E8
:100188004E3A031DC828C928CE280230F500750844
:10019800FC000C297D088E3A031DD328D428D928C1
:1001A8000330F5007508FC000C297D081D3A031D75
:1001B800DE28DF28E4280430F5007508FC000C2947
:1001C8007D082D3A031DE928EA28EF280530F500B7
:1001D8007508FC000C297D084D3A031DF428F52804
:1001E800FA280630F5007508FC000C297D088D3AC0
:1001F800031DFF2800290C290730F5007508FC00AD
:100208000C290C290C290C290C290C290C290C293E
:100218007C180F291329831203139F15162983129B
:1002280003139F117C08F50001300310F50CFF3E05
:10023800031D1929751821292529831203131F164F
:100248002829831203131F127C08F50002300310BB
:10025800F50CFF3E031D2B29751833293729831206
:1002680003139F163A29831203139F129F193D29DE
:100278004129831203130814442983120313081015
:100288001F1A47294B298312031388144E298312F6
:10029800031388109F1A512955298312031308152F
:1002A80058298312031308110A30F0000030F100B6
:1002B8000A128A113B220A128A11F030831603139C
:1002C80086008312031386010608F5007508BD0031
:1002D8000B107029702970297A08FF0079088A00A4
:1002E80078088400770E8300FE0E7E0E0900F03039
:1002F800831603138600091489140915FF30850035
:100308008801C03087008113831203138901860195
:10031800870185018515E830B4000330B5000A125D
:100328008A11E8210A128A113830831203138800CF
:100338000030B9000030BA000A128A1120220A12CD
:100348008A110C308312031388000030B900003082
:10035800BA000A128A1120220A128A11263083163C
:1003680003139900980118121817831203139801A0
:1003780098178316031398168312031318168B17EE
:100388000B17831603138C14831203138C100C138E
:10039800831603138C164130831203139F00803099
:1003A800831603139F007F30831203139200FF30DC
:1003B800831603139200831203130608BB003B083D
:1003C800BD000B108B15080083120313B701B80189
:1003D800F529013083120313B7070318B80A003050
:1003E800B8073808803AB6003508803A3602031D47
:1003F800FF2934083702031C022A032AED29042A9C
:100408000800FB01FC01FD01BC01BD01BE01BF01EB
:10041800C001C10183133430FD000230FE005430A6
:10042800FF00203084000A128A116C220A128A11F5
:1004380083010A128A117B2A831203133918252A89
:10044800292A8312031385162C2A83120313851273
:10045800051285111E30B4000030B5000A128A1149
:10046800E8210A128A118312031385150800F30183
:10047800F401442A0130F3070318F40A0030F407A2
:100488007408803AF2007108803A7202031D4E2AFD
:1004980070087302031C512A522A3E2A532A080064
:1004A8003134303430343034303430343034003453
:1004B8000034003400340034003400340034003494
:1004C80000340034003400347E088A007F0882003B
:1004D8000A128A1168220A128A118000840A040802
:1004E8007D0603190034FF0A0319FE0A6C2A0A1252
:1004F8008A117B210A128A117B1483120313880143
:0A050800852A852A0A128A1112289A
:02400E0029FF88
:00000001FF
