:060000000A128A11122809
:10000800FE00030EF7000408F8000A08F90083123E
:1000180003137F08FA000A128A1115280A128A1196
:100028000B2C8C1E182819283828181C1C281D2849
:1000380030281A080F39F5007508D1001A08F5009C
:1000480005300310F50CFF3E031D252875080739F8
:10005800F6007608D80035281A08F5007508D0008B
:1000680035287B158801CF280B1C3B283C28CF2836
:100078007B155A080606F5007508DA000F30831656
:10008800031386000A30F0000030F1000A128A11CA
:1000980063240A128A118312031306080F39F50024
:1000A8007508D9005A085904F5007508FD007D083F
:1000B8001E3A031D602861286328FC01B6287D08C4
:1000C8002E3A031D682869286D28FC010314FC0DCD
:1000D800B6287D084E3A031D722873287828023006
:1000E800F5007508FC00B6287D088E3A031D7D28AA
:1000F8007E2883280330F5007508FC00B6287D08A3
:100108001D3A031D882889288E280430F5007508B3
:10011800FC00B6287D082D3A031D932894289928B9
:100128000530F5007508FC00B6287D084D3A031D1A
:100138009E289F28A4280630F5007508FC00B628DC
:100148007D088D3A031DA928AA28B6280730F5008E
:100158007508FC00B628B628B628B628B628B628EA
:10016800B628B6280A30F0000030F1000A128A11C9
:1001780063240A128A11F03083160313860083124F
:10018800031386010608F5007508DA000B107C08D1
:100198009900CF28CF287A08FF0079088A007808C4
:1001A8008400770E8300FE0E7E0E0900831203136F
:1001B800AA01A31FE028E128F028A009A109A209A3
:1001C800A309A00A0319A10A0319A20A0319A30A79
:1001D800AA010314AA0DF028A71FF328F42804295C
:1001E800A409A509A609A709A40A0319A50A0319B8
:1001F800A60A0319A70A0130A8002808AA06042994
:100208000030AE000030AD000030AC000030AB0074
:100218002308220421042004031913291429682916
:10022800A9010314A90D26290130A8000310A00D67
:10023800A10DA20DA30DA80B1A290130A8002808AA
:10024800A9072629A31F29292A2918292C292C2955
:100258000130A8000310AB0DAC0DAD0DAE0DA80B11
:100268002E2923082702031D432922082602031DDD
:10027800432921082502031D432920082402031CC1
:100288004629472957292008A4022108031C210FC1
:10029800A5022208031C220FA6022308031C230F11
:1002A800A7022B14572901300310A30CA20CA10C90
:1002B800A00CFF3E031D58290130A902031D652922
:1002C80066292C29682968292A08031D6C29782998
:1002D800AB09AC09AD09AE09AB0A0319AC0A03199D
:1002E800AD0A0319AE0A78292E08A3002D08A2002A
:1002F8002C08A1002B08A0008129080083120313F1
:10030800AA01A71F882989299829A409A509A60946
:10031800A709A40A0319A50A0319A60A0319A70A13
:10032800AA010314AA0D9829A31F9B299C29A8296F
:10033800A009A109A209A309A00A0319A10A03197E
:10034800A20A0319A30AA8292308220421042004C5
:100358000319AF29B029FA29A9010314A90DC22943
:100368000130A8000310A00DA10DA20DA30DA80B2C
:10037800B6290130A8002808A907C229A31FC52942
:10038800C629B429C829C82923082702031DD62944
:1003980022082602031DD62921082502031DD62975
:1003A80020082402031CD929DA29E9292008A402F3
:1003B8002108031C210FA5022208031C220FA602F4
:1003C8002308031C230FA702E92901300310A30CFB
:1003D800A20CA10CA00CFF3E031DEA290130A902C2
:1003E800031DF729F829C829FA29FA292A08031D1B
:1003F800FE290A2AA409A509A609A709A40A031916
:10040800A50A0319A60A0319A70A0A2A2708A30096
:100418002608A2002508A1002408A000132A080025
:1004280080308312031388000030A5000030A60036
:100438000A128A1148240A128A11831203135308D4
:10044800A3005208A2005108A1005008A0000030E3
:10045800A7000030A6000030A5003130A4000A1221
:100468008A1194230A128A11831203132308B900EC
:100478002208B8002108B7002008B6000A128A111D
:100488008B220A128A115630831203138800013016
:10049800A5000030A6000A128A1148240A128A11FF
:1004A80020308312031388000130A5000030A60015
:1004B8000A128A1148240A128A117C08303E8312D3
:1004C800031388000130A5000030A6000A128A1123
:1004D80048240A128A11203083120313880001303D
:1004E800A5000030A6000A128A1148240A128A11AF
:1004F800831203135808303E88000130A5000030ED
:10050800A6000A128A1148240A128A1108008312C6
:1005180003133908B2003808B1003708B0003608AC
:10052800AF000A128A11EA220A128A1183120313EF
:10053800BA01BB013B08803AFF0080307F02031DEF
:10054800A72A07303A02031CAA2AAB2AAD2AE92AAD
:10055800E92A0330831203133A063B04031DB52A24
:10056800B62AC22A2E3088000130A5000030A60025
:100578000A128A1148240A128A11C22A8312031302
:100588003A083C3E84008313000888000130A50027
:100598000030A6000A128A1148240A128A11013072
:1005A80083120313BA070318BB0A0030BB073B08C2
:1005B800803AFF0080307F02031DE42A07303A02A8
:1005C800031CE72AE82AAD2AE92A08000630831224
:1005D8000313B4000030B500B51FF32AF42AF62A35
:1005E800402B402B0030A3000030A2000030A100B7
:1005F8000A30A0003208A7003108A6003008A5007C
:100608002F08A4000A128A1182210A128A11831261
:1006180003132008303EB30034083C3E84003308FE
:10062800831380000030A3000030A2000030A10036
:100638000A30A0003208A7003108A6003008A5003B
:100648002F08A4000A128A11DA200A128A118312CA
:1006580003132308B2002208B1002108B0002008C3
:10066800AF00FF30B4070318B50AFF30B507B51F50
:100678003E2B3F2BF62A402B0800F030831603133D
:1006880086008501880107309F00C03087008113EC
:100698008312031388018901860187018501851565
:1006A800E830A0000330A1000A128A112B240A1294
:1006B8008A1138308312031388000030A5000030F7
:1006C800A6000A128A1148240A128A110C308312D1
:1006D800031388000030A5000030A6000A128A1112
:1006E80048240A128A1126308316031399009801A8
:1006F80018128312031398011817981783160313F7
:1007080098168312031318168B178B150608A70063
:100718002708DA000B100B17831603138C16080032
:10072800003083120313AC000030AB000030AA0085
:100738000030A9009F2B201CA22BA32BBB2B240825
:10074800A907250803110318013E0319AC2BAA07B2
:10075800260803110318013E0319B32BAB0727081A
:1007680003110318013E0319BA2BAC07BB2B013048
:10077800A8000310A40DA50DA60DA70DA80BBD2B51
:1007880001300310A30CA20CA10CA00CFF3E031D0A
:10079800C52B2308220421042004031DD42BD52BA8
:1007A8009F2BD62B2C08A3002B08A2002A08A100F7
:1007B8002908A000DF2B08000A128A1141230A1217
:1007C8008A117B157B14E82B7B1DEB2BEC2BE82B7C
:1007D800FB1CEF2BF02BFF2BFB10013083120313B4
:1007E80088000030A5000030A6000A128A114824AB
:1007F8000A128A11FF2B0A128A1114220A128A116C
:100808007B11E82BE82BE82B0A128A111228FB012E
:10081800FC01FD01D001D101D201D301D401D501E0
:10082800D601D701D801D901DA0183135030FD0070
:100838000430FE007C30FF003C3084000A128A112C
:1008480094240A128A1183010A128A11E02B831256
:100858000313A301A401382C013083120313A30747
:100868000318A40A0030A4072408803AA20021082B
:10087800803A2202031D422C20082302031C452C27
:10088800462C302C472C08008312031325184D2CB6
:10089800512C831203138516542C831203138512CB
:1008A800051285111E30A0000030A1000A128A111D
:1008B8002B240A128A118312031385150800F301E9
:1008C800F4016C2C0130F3070318F40A0030F40724
:1008D8007408803AF2007108803A7202031D762C7F
:1008E80070087302031C792C7A2C662C7B2C080068
:1008F80031343034303430343034303430340034FF
:10090800003400340034003400340034003400343F
:1009180000340034003400347E088A007F088200E6
:100928000A128A1190240A128A118000840A040883
:0E0938007D0603190034FF0A0319FE0A942CF1
:02400E0029FF88
:00000001FF
