:060000000A128A11122809
:10000800FE00030EF1000408F2000A08F300831250
:1000180003137F08F4000A128A114F290A128A1161
:10002800F92A83120313A901A31F1B281C282B28B4
:10003800A009A109A209A309A00A0319A10A031981
:10004800A20A0319A30AA9010314A90D2B28A71FA3
:100058002E282F283F28A409A509A609A709A40A1C
:100068000319A50A0319A60A0319A70A0130F500FE
:100078007508A9063F280030AD000030AC000030FC
:10008800AB000030AA00230822042104200403192D
:100098004E284F28A328A8010314A80D6128013071
:1000A800F5000310A00DA10DA20DA30DF50B552809
:1000B8000130F5007508A8076128A31F6428652882
:1000C8005328672867280130F5000310AA0DAB0DE7
:1000D800AC0DAD0DF50B692823082702031D7E28FA
:1000E80022082602031D7E2821082502031D7E28DA
:1000F80020082402031C8128822892282008A402B0
:100108002108031C210FA5022208031C220FA602A6
:100118002308031C230FA7022A1492280130031076
:10012800A30CA20CA10CA00CFF3E031D93280130C8
:10013800A802031DA028A1286728A328A328290806
:10014800031DA728B328AA09AB09AC09AD09AA0A57
:100158000319AB0A0319AC0A0319AD0AB3282D0811
:10016800A3002C08A2002B08A1002A08A000BC2884
:10017800080083120313A901A71FC328C428D32882
:10018800A409A509A609A709A40A0319A50A031918
:10019800A60A0319A70AA9010314A90DD328A31FA6
:1001A800D628D728E328A009A109A209A309A00AEB
:1001B8000319A10A0319A20A0319A30AE3282308A9
:1001C8002204210420040319EA28EB283529A80170
:1001D8000314A80DFD280130F5000310A00DA10D92
:1001E800A20DA30DF50BF1280130F5007508A8073D
:1001F800FD28A31F00290129EF2803290329230823
:100208002702031D112922082602031D112921088E
:100218002502031D112920082402031C142915296D
:1002280024292008A4022108031C210FA502220862
:10023800031C220FA6022308031C230FA70224294C
:1002480001300310A30CA20CA10CA00CFF3E031D4F
:1002580025290130A802031D32293329032935290C
:1002680035292908031D39294529A409A509A609FD
:10027800A709A40A0319A50A0319A60A0319A70AB4
:1002880045292708A3002608A2002508A10024085C
:10029800A0004E2908000C1D52295329AA29171C11
:1002A80056295729A329043097000C119608031DD5
:1002B8005E295F2969290130F0000310CF0DD00DA8
:1002C800D10DD20DF00B6129AA29023016020318AC
:1002D8006E296F2987290130F0000310CF0DD00D4A
:1002E800D10DD20DF00B71290130CF070030031862
:1002F8000130D007003003180130D107003003184F
:100308000130D207AA290430160203188C298D2936
:10031800AA295208D6005108D5005008D4004F0821
:10032800D300F7140030D2000030D1000030D000E4
:100338000030CF00AA29AA29AA29AA29AA29053062
:1003480097000C118E018F01AA29AA297408FF00B1
:1003580073088A0072088400710E8300FE0E7E0EF8
:100368000900063083120313B5000030B600B61F2B
:10037800BE29BF29C1290C2A0C2A0030A30000304D
:10038800A2000030A1000A30A0003108A700300800
:10039800A6002F08A5002E08A4000A128A11BD2065
:1003A8000A128A11831203132008B3003508320792
:1003B800B400340884003308831380000030A3009D
:1003C8000030A2000030A1000A30A0003108A700C8
:1003D8003008A6002F08A5002E08A4000A128A11CA
:1003E80015200A128A11831203132308B100220868
:1003F800B0002108AF002008AE00FF30B507031891
:10040800B60AFF30B607B61F0A2A0B2AC1290C2ADA
:100418000800831203133A08B1003908B0003808FD
:10042800AF003708AE003B08BC003C08B2000A1217
:100438008A11B5210A128A1183120313BD01BE0164
:100448003E08803AFF0080307F02031D2D2A0730C6
:100458003D02031C302A312A332A5D2A5D2A831281
:1004680003133D083B07BC003C08840083130008C5
:10047800303E88000130A3000030A4000A128A111F
:1004880015230A128A11013083120313BD070318BA
:10049800BE0A0030BE073E08803AFF0080307F0267
:1004A800031D582A07303D02031C5B2A5C2A332AA5
:1004B8005D2A080083160313880185010715871331
:1004C800860107309F00831203138801871385155F
:1004D800E830F5000330F6000A128A11DC220A120D
:1004E8008A1138308312031388000030A3000030CB
:1004F800A4000A128A1115230A128A110C308312D9
:10050800031388000030A3000030A4000A128A11E7
:1005180015230A128A11F7108B170B17831603136A
:100528000C15831203130C110C1090010430970062
:10053800080080308312031388000030A3000030C5
:10054800A4000A128A1115230A128A1183120313AE
:100558005608BA005508B9005408B8005308B7003F
:100568005730BF003F08BB000A128A110D220A1239
:100578008A1108000A128A115E220A128A110A12C6
:100588008A119D220A128A11831203131014CC2A8D
:10059800F71CCF2AD02ACC2AF7100A128A119D22DA
:1005A8000A128A11CC2ACC2ACC2A0A128A111228B9
:1005B80083120313A101A201E92A01308312031354
:1005C800A1070318A20A0030A2072208803AA00057
:1005D8007608803A2002031DF32A75082102031CBD
:1005E800F62AF72AE12AF82A0800F701F801831306
:1005F8004030840057300A128A1157230A128A1190
:100608006B30FD000330FE003030FF0057308400AF
:100618000A128A1148230A128A1183010A128A11BE
:10062800BE2A8312031323181A2B1E2B83120313BB
:100638008516212B831203138512051285111E308E
:10064800F5000030F6000A128A11DC220A128A111B
:1006580083120313851508003134303430343034B4
:100668003034303430340034003400340034003452
:1006780000340034003400340034003400340034D2
:100688007E088A007F0882000A128A1144230A120F
:100698008A118000840A04087D0603190034FF0AC1
:1006A8000319FE0A482B64008001840A0406031912
:0606B80000340406582B7B
:02400E0029FF88
:00000001FF
