:060000000A128A11122809
:10000800FE00030EF1000408F2000A08F300831250
:1000180003137F08F4000A128A1115280A128A119C
:10002800E52A0C1D18281928B2280C11751D1D2841
:100038001E287F280130F506751C2328242830281F
:1000480087170F0896000E08373E950000300318F2
:10005800013016079600B8287908013A031D35289B
:100068003628452887130E084F3E950000300318A0
:1000780001300F0796000F08023E96000130F90282
:10008800B828F908031D49284A2859288713053034
:10009800970075110030D3000030D2000030D10035
:1000A8000130D000F7017510B8288713D21F5D28DA
:1000B8005E2865280F08013E96000E08103E950040
:1000C8006B280F0896000E08403E95006B280030FC
:1000D80003180130160796000130F9020130F000CC
:1000E8000310D00DD10DD20DD30DF00B7428B82804
:1000F800B828B828B828F708003003190130F000EC
:100108007008F700F708031D8A288B28AC280E080A
:10011800053EF0007008D4000030031801300F07C6
:10012800F0007008D5007808F0007008D60057086D
:10013800D3005608D2005508D1005408D000F51451
:1001480075150A3097001930F0007008F900B828C2
:100158008E018F01F801B828B828B8280C10013092
:10016800F0007008F807B8287408FF0073088A00C0
:1001780072088400710E8300FE0E7E0E0900831241
:100188000313AA01A31FC928CA28D928A009A109AD
:10019800A209A309A00A0319A10A0319A20A0319AB
:1001A800A30AAA010314AA0DD928A71FDC28DD2851
:1001B800ED28A409A509A609A709A40A0319A50AEF
:1001C8000319A60A0319A70A0130A8002808AA06D5
:1001D800ED280030AE000030AD000030AC0000303B
:1001E800AB0023082204210420040319FC28FD285D
:1001F8005129A9010314A90D0F290130A8000310E2
:10020800A00DA10DA20DA30DA80B03290130A80074
:100218002808A9070F29A31F12291329012915291D
:1002280015290130A8000310AB0DAC0DAD0DAE0DB6
:10023800A80B172923082702031D2C2922082602A8
:10024800031D2C2921082502031D2C29200824021E
:10025800031C2F29302940292008A4022108031C47
:10026800210FA5022208031C220FA6022308031C43
:10027800230FA7022B14402901300310A30CA20C52
:10028800A10CA00CFF3E031D41290130A902031D4A
:100298004E294F291529512951292A08031D552965
:1002A8006129AB09AC09AD09AE09AB0A0319AC0A5F
:1002B8000319AD0A0319AE0A61292E08A3002D08F7
:1002C800A2002C08A1002B08A0006A2908008312AC
:1002D8000313AA01A71F712972298129A409A50955
:1002E800A609A709A40A0319A50A0319A60A031946
:1002F800A70AAA010314AA0D8129A31F8429852905
:100308009129A009A109A209A309A00A0319A10A10
:100318000319A20A0319A30A912923082204210414
:100328002004031998299929E329A9010314A90D7F
:10033800AB290130A8000310A00DA10DA20DA30D3B
:10034800A80B9F290130A8002808A907AB29A31FDB
:10035800AE29AF299D29B129B12923082702031DF8
:10036800BF2922082602031DBF2921082502031DD3
:10037800BF2920082402031CC229C329D229200826
:10038800A4022108031C210FA5022208031C220F26
:10039800A6022308031C230FA702D2290130031049
:1003A800A30CA20CA10CA00CFF3E031DD329013005
:1003B800A902031DE029E129B129E329E3292A0833
:1003C800031DE729F329A409A509A609A709A40A71
:1003D8000319A50A0319A60A0319A70AF329270866
:1003E800A3002608A2002508A1002408A000FC29D3
:1003F8000800063083120313B4000030B500B51F9F
:10040800062A072A092A532A532A0030A300003053
:10041800A2000030A1000A30A0003208A70031086D
:10042800A6003008A5002F08A4000A128A116B2123
:100438000A128A11831203132008303EB3003408CD
:100448003C3E84003308831380000030A300003052
:10045800A2000030A1000A30A0003208A70031082D
:10046800A6003008A5002F08A4000A128A11C3208C
:100478000A128A11831203132308B2002208B1005A
:100488002108B0002008AF00FF30B4070318B50AF0
:10049800FF30B507B51F512A522A092A532A0800E6
:1004A800831203133908B2003808B1003708B000C6
:1004B8003608AF000A128A11FD210A128A11831226
:1004C8000313BA01BB013B08803AFF0080307F026A
:1004D800031D702A07303A02031C732A742A762AED
:1004E8009D2A9D2A831203133A083C3E84008313F5
:1004F800000888000130A5000030A6000A128A1101
:1005080061230A128A11013083120313BA070318F0
:10051800BB0A0030BB073B08803AFF0080307F02EF
:10052800031D982A07303A02031C9B2A9C2A762A24
:100538009D2A080083160313880185010715871370
:100548000712860107309F0083120313880187135F
:100558008515E830A0000330A1000A128A1144234F
:100568000A128A1138308312031388000030A5005C
:100578000030A6000A128A1161230A128A110C306F
:100588008312031388000030A5000030A6000A1269
:100598008A1161230A128A117511F51075108B17CB
:1005A8000B17831603130C15831203130C118316F0
:1005B80003130C14831203130C10900105309700D9
:1005C8000800F501F601F701F801D001D101D201C7
:1005D800D301D401D501D601D70183135030FD00D2
:1005E8000330FE007C30FF003C3084000A128A1180
:1005F80094230A128A110A128A11A3230A128A1151
:10060800F90083010A128A11092B0A128A119E2203
:100618000A128A110A128A1127230A128A118312CE
:1006280003131014172BF51C1A2B1B2B172BF51063
:100638000A128A1127230A128A11172B172B172B34
:100648000A128A111228803083120313880000309E
:10065800A5000030A6000A128A1161230A128A1125
:10066800831203135708B9005608B8005508B70095
:100678005408B6000A128A1154220A128A11080074
:1006880083120313A301A401512B01308312031316
:10069800A3070318A40A0030A4072408803AA2007C
:1006A8002108803A2202031D5B2B20082302031C29
:1006B8005E2B5F2B492B602B080083120313251830
:1006C800662B6A2B8312031385166D2B8312031373
:1006D8008512051285111E30A0000030A1000A12F3
:1006E8008A1144230A128A118312031385150800FC
:1006F8003134303430343034303430343034003401
:100708000034003400340034003400340034003441
:1007180000340034003400347E088A007F088200E8
:100728000A128A1190230A128A118000840A040886
:100738007D0603190034FF0A0319FE0A942B1834A6
:02400E0029FF88
:00000001FF
